:10000000982100202D010000290100002901000095
:1000100000000000000000000000000000000000E0
:1000200000000000000000000000000029010000A6
:10003000000000000000000029010000290100006C
:100040002901000029010000290100002901000008
:10005000190F0000290100002901000029010000FA
:1000600029010000290100002901000029010000E8
:1000700029010000290100002901000029010000D8
:100080002901000029010000811C0000A11C0000C2
:1000900029010000B51C0000290100002901000011
:1000A00029010000290100002901000029010000A8
:1000B0000000000010B5064C2378002B07D1054B3B
:1000C000002B02D0044800E000BF0123237010BDC4
:1000D000A4000020000000005C4F0000084B10B599
:1000E000002B03D00749084800E000BF0748036819
:1000F000002B00D110BD064B002BFBD09847F9E731
:1001000000000000A80000205C4F00005C4F0000D1
:100110000000000010B5024B9847024B984710BDF5
:10012000ED040000F92D0000FEE70000F8B52A4AB2
:100130002A4B9A4211D01A00294B9A420DD2294AD1
:1001400003339B1A9B0801339B000022234822495A
:100150008C58845004329A42FAD1234A234B9A4253
:100160000AD2D34321495B1803218B4304339B18E4
:10017000002102C29342FCD11D4AFF211D4B8B433B
:100180009360FD3990235B001B4AD1501B4AD37802
:100190000325AB4302242343D370D3780C27BB43FE
:1001A00008263343D370164B987B3022904320228D
:1001B00010439873997BB943314399739A7BAA434F
:1001C00022439A730F4A536880210B4353600E4BAE
:1001D00098470E4B9847FEE75C4F00000000002058
:1001E000A400002004000020A400002094010020AE
:1001F00000ED00E0000000000070004100500041F0
:10020000004800410040004181370000292C0000D7
:10021000F8B51B4A1B4B5A80C027FF0580235B03A0
:100220007B60194B194A9A62194A9A625420195CE8
:10023000042291431954195C0125A9430124214347
:10024000C9B219541A38195C0F26B1431954063033
:100250008421785024310F4858500F4858501E318F
:10026000585C904358545A5CAA432243D2B25A5421
:1002700013395A5CB2435A54084B9847F8BDC046EC
:1002800005400000000C0040004400410000024016
:10029000100002C040000240000002C02906000019
:1002A00070B5124B4820195C042291431954195C13
:1002B0000125A94301242143C9B219541438195CFA
:1002C0000F26B1430D3E3143195449215E5C9643DC
:1002D0005E545A5CAA432243D2B25A541A5C3A3949
:1002E0000A4011310A431A5470BDC046004400410F
:1002F000054A136A04210B431362044B044A5A80D3
:10030000044A5A807047C04600040040000C004078
:10031000144000001343000010B5044B98470449F3
:100320000448054B9847054B984710BDF102000063
:10033000000800425401002089070000A1020000CB
:1003400030B50E4B5622995C0125A9430124214367
:10035000C9B299543B20195C473A91430D3A114375
:10036000195457215A5CAA432243D2B25A541A5CF8
:1003700048390A4011310A431A5430BD0044004143
:10038000044A136A20210B431362034A034B5A8029
:100390007047C0460004004017400000000C0040B9
:1003A00010B5054B9847002204490548054B98476E
:1003B000054B984710BDC046810300000014004261
:1003C0002C010020AD0C00004103000010B50248D4
:1003D000024B984710BDC04610E000E081050000C8
:1003E000074AC921535C0120834303435354153901
:1003F000535C0E3003403130034353547047C046C2
:1004000000440041044A116A80235B010B431362DC
:10041000024A034B5A807047000400401C40000011
:10042000000C004010B5064B9847064B9847064B0A
:100430009847020005490648064B984710BDC0463C
:1004400005040000E10300005D1C000000300042D4
:10045000380100207508000030B50E4BC222995CAF
:100460000125A94301242143C9B29954B120195C43
:10047000B33A91430B3A11431954C3215A5CAA432E
:100480002243D2B25A541A5CB4390A4031310A4379
:100490001A5430BD00440041044A116A8023DB0134
:1004A0000B431362024A034B5A807047000400401A
:1004B0001D400000000C004010B5064B9847064B4D
:1004C0009847064B9847020005490648064B98474F
:1004D00010BDC04699040000590400005D1C0000D6
:1004E00000380042100100207508000010B50F4BC5
:1004F00098470F4B98470F4B98470F4B98470F4B18
:1005000098470F4A116A80231B010B4313620D4A5F
:100510000D4B5A800D4B984702000D490D480E4B6C
:1005200098470E4B98470E4B984710BD0D0E000094
:100530001102000019030000A1030000CD03000018
:10054000000400401B400000000C0040591C00004B
:10055000002C004274010020610A00002504000004
:10056000B9040000EFF31083036072B6BFF35F8F2E
:100570007047BFF35F8F036883F3108870470000F4
:1005800010B5024B1860024B984710BDC000002008
:100590009D18000010B5044B1C68044B98470100DF
:1005A0002000034B984710BDC0000020ED0D000057
:1005B000B118000010B5044B1C68044B98470100AB
:1005C0002000034B984710BDC0000020050E00001E
:1005D000B1180000F8B5134BD968884205D0012244
:1005E00002270024FF261D0016E00123DB000D4A30
:1005F0009B58002B00D09847F8BD013AD7B2A742CC
:10060000FAD33B195B10DAB2012AF5D83340D9008E
:10061000691849688142E9D08842EED90132D4B2E2
:10062000EDE7C046C400002010B5064B0121494249
:10063000596000221A60D9609A600348034B9847BA
:1006400010BDC046C4000020D50500003D0E0000CE
:10065000F8B52B4B5B6898421AD0294BDB68834274
:100660000DD0002923D0264B1B680022002B23D05D
:10067000234B9B68002B1DD00D2040423EE0012300
:10068000DB001F4A9950002935D11E4B984735E0B1
:100690000023F5E75C1C1BD0194D2C68A446CC0048
:1006A0002C19C0CCC0C564461460536010E00D2006
:1006B000404223E001230122114CDB001951E318D1
:1006C00058601100D200A21863685468A342E1D8B0
:1006D0000B4BDC68CD005B195B68A3420BD2631C3B
:1006E00009D0074B9E6829001D000835591888C994
:1006F00088C5166054600121024B9847F8BDC0467A
:10070000C4000020D10E000010B50121014B984714
:1007100010BDC046D10E000010B50021014B984716
:1007200010BDC046D10E000010B584B0140001AB5E
:100730001438828B1A800294054A5A80039119005A
:10074000044B9847002800D1200004B010BDC046DB
:100750000080FFFF0D13000010B584B0140001AB42
:100760001438828B1A800294054A5A80039119002A
:10077000044B9847002800D1200004B010BDC046AB
:100780000180FFFF0D13000070B504000D00431E33
:100790009841C0B25E220749074B984729002000C4
:1007A000064B9847002803D1054BA361054B6361B5
:1007B00070BDC046804B0000250D0000591200009E
:1007C000590700002907000010B5014B984710BDDC
:1007D000891200008905890D8023DB001A400A4335
:1007E000828310007047000010B5014B984710BD80
:1007F0000D13000070B506000C00150000280DD088
:100800000800431E9841C0B234220549054B984761
:1008100033682A0021003000984770BD0020F3E7BC
:100820009C4B0000250D000070B506000C00150063
:1008300000280DD00800431E9841C0B23D22054952
:10084000054B984773682A0021003000984770BD17
:100850000020F3E79C4B0000250D000010B5436914
:10086000002B00D0984710BD10B58369002B00D035
:10087000984710BD70B505000C00002811D0080085
:10088000431E9841C0B233220749084B98472100C4
:100890002800074B9847074B2B60074B6B600020E5
:1008A00070BD0020EFE7C046B04B0000250D0000F2
:1008B000C91A00005D0800006908000010B50400B6
:1008C000431E9841C0B24A220749084B984720006E
:1008D000074B9847002804D12000064B984700207A
:1008E00010BD11204042FBE7B04B0000250D000079
:1008F0004F1C0000E11B000010B50400431E98418E
:10090000C0B258220749084B98472000074B984728
:10091000002804D02000064B9847002010BD11206D
:100920004042FBE7B04B0000250D00004F1C0000CB
:10093000F91B000070B504000D001600431E98411D
:10094000C0B27C220449054B9847320029002000A0
:10095000034B9847002070BDB04B0000250D0000F0
:10096000051C0000F8B5CE46474680B581460368B1
:100970009C46002B05D08E681C0000250127BF1A5D
:100980000DE0124B984718E0FB18A06880464344DE
:10099000B3420CD223682500002B0BD01C006368E7
:1009A0009342F1D8A068804643449B1AF0E7A445DF
:1009B00007D02C002000064B98470CBC9046994667
:1009C000F8BD4846014B9847F7E7C046510D000077
:1009D0007D0D0000F0B5C64600B582B00700446941
:1009E0000369013398460361037EDB0711D4037E5C
:1009F0009B070ED4002C10D0434662689B1AA26855
:100A000093420AD314239C46844463460193124EB6
:100A100014E03B7E022213433B7602B004BC9046B6
:100A2000F0BD7D69E36820009847002DF5D02C00CB
:100A300043466A689B1AAA689342EED30198B0476E
:100A4000237C012BEDD1434663604246210001988F
:100A5000024B9847E5E7C046850D00006509000098
:100A600070B505000C00002811D00800431E984105
:100A7000C0B23B220749084B984721002800074B8A
:100A8000984700232B61064B2B60002070BD00208F
:100A9000EFE7C046C84B0000250D00008919000093
:100AA000D509000010B50400431E9841C0B253227E
:100AB0000749084B98472000074B9847002804D166
:100AC0002000064B9847002010BD11204042FBE754
:100AD000C84B0000250D0000451C0000D51B000080
:100AE00010B50400431E9841C0B261220749084B6B
:100AF00098472000074B9847002804D02000064B59
:100B00009847002010BD11204042FBE7C84B000071
:100B1000250D0000451C0000ED1B000070B582B0E3
:100B200004000D00002824D00800431E9841C0B2E4
:100B30007A221E491E4B9847237E012213432376B7
:100B400026001436290030001A4B9847002812D18D
:100B500023696B60226929003000174B9847237E78
:100B6000012293432376237E00209B070FD402B0FB
:100B700070BD0020DCE7237E0122934323767E3282
:100B80000A4900200A4B984712204042EFE701A88B
:100B90000A4B9847237E0222934323762000084B7A
:100BA000984701A8074B98470020E0E7C84B000092
:100BB000250D00002D0D00006509000065050000F1
:100BC000611C000073050000F8B5CE46474680B5AD
:100BD00004000F009046002826D0002926D01000DF
:100BE000431E9841F1221249124B98470834124D86
:100BF0002000A8470028FBD00026104B99460E4D38
:100C0000B95D2000C8472000A8470028FBD0013666
:100C10004645F5D30A4D2000A8470028FBD03000F8
:100C20000CBC90469946F8BD0020DBE70020D9E7D0
:100C3000E04B0000250D00003912000029120000D1
:100C400043120000F8B5CE46474680B504000F00B9
:100C5000904600281DD000291DD01000431E984149
:100C6000862252000D490E4B9847002608340D4D40
:100C70000D4B99462000A8470028FBD02000C8470C
:100C8000B85501364645F5D330000CBC9046994620
:100C9000F8BD0020E4E70020E2E7C046E04B00009A
:100CA000250D00004D1200003112000070B5050046
:100CB0000C00002813D00800431E9841C0B2342213
:100CC0000849094B9847280008302100074B9847EE
:100CD000002803D1064B6B60064B2B6070BD0020D3
:100CE000EDE7C046E04B0000250D0000E9110000D3
:100CF000450C0000C90B000010B50400431E9841CC
:100D0000C0B253220449054B984720000830044BD9
:100D10009847002010BDC046E04B0000250D0000A4
:100D200015120000002800D100BE70470368002B98
:100D30000AD08B420AD01B68002B03D09942FAD10B
:100D4000012000E0002070470020FCE70120FAE7C6
:100D500070B504000D00064B984701235840C0B2FF
:100D600039220449044B984723682B60256070BDE5
:100D70002D0D0000FC4B0000250D000003680B60EA
:100D8000016070470368002B01D01A6802601800E8
:100D9000704700000300064A1268002A04D0044A83
:100DA0001068C318136070470249014A1160F6E7E2
:100DB000D400002098210020012040427047802369
:100DC0009B014B6000207047012070470020704756
:100DD00043B2002B07DB1F2318401E3B83408022B9
:100DE000520001498B50704700E100E010B503004C
:100DF0006420584301386421014B9847013010BDED
:100E0000192E0000FA239B005843704710B5064B7B
:100E10005A685A60054B9847054B9847054B9847C9
:100E2000FF20054B984710BD0040004121100000F5
:100E3000451800008D18000001100000204A53786A
:100E4000DB09FCD11E4A5378DB09FCD11C4B1B7813
:100E50009B070AD500221A4B1A701A005378DB0937
:100E6000FCD1174A5378DB09FCD10122144B1A70CC
:100E70001A005378DB09FCD1114A5378DB09FCD105
:100E80000F4B00229A705A605A610E499961DA61DB
:100E90001A7802210A431A701A005378DB09FCD130
:100EA000094B102280215A50BFF34F8FBFF36F8F31
:100EB0000131FF315A501A60044B1860002070470E
:100EC000001800400000030300E100E0D80000200B
:100ED000142805D00123262803D00D204042704756
:100EE0000023DB000A4A9A5CFF2A0ED0002906D1B3
:100EF00001239340074A936013610020EFE7012329
:100F00009340044AD3600020E9E70D204042E6E721
:100F10001C4C000000180040F0B5CE46474680B596
:100F200083B0314B1A69D9680A400192019A1A615B
:100F30002E4B1868431E9841C0B2D2222C492D4B2B
:100F40009847019B002B4AD001235B4299462A4DCA
:100F50003BE04346DB00284AD3185B6899464B4682
:100F6000013303D0214B1B6848469847019B4246FA
:100F7000A240934301930198204B9847013844B213
:100F8000631C18D0062CE4D006214246022700201C
:100F9000FF260BE0013AD7B2B842E0D83B185B100D
:100FA000DAB23340D900495DA142D3D08C42F1DDA1
:100FB0000132D0B2F0E70C4B1A69D9680A400192AD
:100FC000019A1A61019B002B09D001980B4B98479D
:100FD000013844B201239846631CD3D1EBE703B038
:100FE0000CBC90469946F0BD00180040D800002087
:100FF0002C4C0000250D00001C4C000005310000A9
:10100000C3070AD5054B802252009A608322520200
:101010005A601A005378DB09FCD17047000C00407D
:10102000064B1A7AD2B21A725A7AD2B25A729A7A93
:10103000D2B29A72DA7AD2B2DA7270470004004001
:1010400010B5084B9C466044800AC0B2002807D007
:10105000E622920004490020044B984701204042B8
:1010600010BDC04600F8FFBD5C4C0000250D00001F
:1010700070B505000C000800314B9847C0B2E36919
:10108000DB0721D443001B18DB002E4AD318596814
:101090001C2319400322E3691A42FCD123689B07F1
:1010A0000BD523680222934323600132E3691A427D
:1010B000FCD10222E3691A42FCD101230B432360D5
:1010C0000322E3691A42FCD10122E3691A42FCD1EE
:1010D00043001B18DB001B4AD31859682160032208
:1010E000E3691A42FCD143001B18DB00154AD318F0
:1010F0009B6863600422E3691A42FCD143001B1819
:10110000DB00104AD318DB68E3608901890FA981ED
:10111000636A0D4E1E4001238B429B415B429B0341
:10112000334363620422E3691A42FCD14300181876
:10113000C000044B1818438AEB81002070BDC046E4
:1011400041100000444C0000FFBFFFFF10B5040039
:101150001F4BC3189B0ADBB2032B04D01D4A1E4948
:1011600000201E4B9847E369DB0718D40322E3698C
:101170001A42FCD123689B070BD5236802229343B4
:1011800023600132E3691A42FCD10222E3691A4268
:10119000FCD1052323600322E3691A42FCD101221A
:1011A000E3691A42FCD10E4B23600322E3691A4221
:1011B000FCD1C0239B0263600722E3691A42FCD181
:1011C000084BA3810023A3733022A354002010BD39
:1011D00000F8FFBD3A0200005C4C0000250D000045
:1011E00004001040ADD8FFFF70B505000C00431E91
:1011F0009841C0B2B4220449044B98472C602000A7
:10120000034B984770BDC0465C4C0000250D0000A4
:101210004D1100000268136802210B431360013175
:10122000D3691942FCD17047036889B219857047A8
:101230000368188DC0B270470368187E01231840F8
:1012400070470368187E8007C00F70470368187ED8
:101250004007C00F7047000070B504000D00431E2A
:101260009841C0B2044A0549054B984725612900B9
:101270002000044B984770BD070500005C4C00003F
:10128000250D00007110000070B504001A4D431EBA
:101290009841C0B2194A2900194EB047246920006C
:1012A000431E9841C0B2174A2900B0472368022262
:1012B000134323600132E3691A42FCD1042504225E
:1012C000032010261049E3691A42FCD1638B1B09E5
:1012D0000340012B0AD001390029F4D1013D002D32
:1012E00006D06683E3691A42FCD1EBE7002070BDAB
:1012F00006204042FBE7C0465C4C0000240500008D
:10130000250D0000F4050000FFFF0000F0B5DE46EB
:1013100057464E464546E0B583B005008846046909
:101320000600731E9E41F3B20193B44FB44A3900D4
:101330001800B44EB0472869431E9841C0B2B82285
:10134000D2003900B0474046431E9841C0B2AE4A71
:101350003900B0476B88DB0500D524E243465A8844
:1013600080235B001A4341464A802A00C1C9C1C29A
:101370006268134363600422E3691A42FCD12F6957
:101380003B689946A14A9D4901989E4B98476B68D6
:10139000012B5AD07B689E4A13407B600422FB6974
:1013A0001A42FCD12B885A055CD56A88D20704D52D
:1013B0006A888021C9000A436A805B009549194008
:1013C0000422FB691A42FCD17B6A8022D2011A40B6
:1013D00080231B021343194379620422FB691A42DA
:1013E000FCD129690B7EDBB28B4A0320184204D161
:1013F0000B7EDBB2013A002AF8D13E680421FA697B
:101400001142FCD17A8B92B2D90700D4A0E09307A5
:101410003ED501233B766B88802149010B436B80CD
:101420006B887E490B406B800120030013405842BB
:10143000584105386B88794A13406B8003B03CBC37
:1014400090469946A246AB46F0BD4B461B01A1D53E
:101450007A688023DB0213437B600422FB691A4213
:10146000FCD19FE76A885B00FF210B40FE391140E9
:1014700019430422FB691A42FCD17B6A8022D20103
:1014800013400B437B620422FB691A42FCD1A8E79C
:1014900053071BD46B885B0535D52B88DB090621E8
:1014A00019400422FB691A42FCD17B6A8022D201D6
:1014B0001340F12213430B437B62ED3AFB691A425E
:1014C000FCD16B88564A13406B8066E06B68002B3A
:1014D00004DD6B888022520113436B806B881BB242
:1014E000002B06DB6B884D4A13406B800220404284
:1014F000A0E77A68C0239B0213437B600423FA6948
:101500001342FCD1EEE76B68002B12D16B881BB243
:10151000002B04DB6B88414A13406B803DE07A6806
:10152000C0239B0213437B600422FB691A42FCD157
:10153000F0E7AB681A782823FA540422FB691A42B0
:10154000FCD1AB680133AB606B68013B6B6024E09E
:101550009B0722D56B68002B40D052073ED4360142
:10156000F60F013B6B60002B00D01FE1002E00D175
:1015700022E16B881BB2002B1DDB6B88274A1340CE
:101580006B80A9684B1CAB600422FB691A42FCD13A
:101590002823FB5C0B7002233B76002680235B0034
:1015A0009A4603210422FF3B9C4601339946263389
:1015B0009B460196C2E07B68184A13407B60063266
:1015C000FF32FB691A42FCD17A68C0239B021343A5
:1015D0007B600422FB691A42FCD1CEE702233B76F2
:1015E0000220404226E76268C0239B0213436360E7
:1015F0000422E3691A42FCD1B5E0C0465C4C00000D
:10160000BF050000250D0000C10500009405000085
:10161000FFFFFBFFFE070000FFFF0000FFFEFFFFD4
:10162000FFFBFFFF02421BD16B885B0535D52B8882
:10163000DB0906201840E3691A42FCD1636A802660
:10164000F6013340F126334303436362E3691A42F0
:10165000FCD16B88784803406B80002301936DE0D8
:101660006B68002B04DD6B888020400103436B8096
:101670006B881BB2002B07DB6B88704803406B80C4
:1016800002235B42019359E06068C0239B0203433D
:101690006360E3691A42FCD1EEE76B68002B13D15B
:1016A0006B881BB2002B06DB6B88644803406B80A1
:1016B0000023019342E06068C0239B020343636000
:1016C000E3691A42FCD1EFE7AB681B785846235414
:1016D000E3691A42FCD1AB680133AB606B68013B34
:1016E0006B600023019329E0002601964E461E42BE
:1016F00024D06B68002B4DD002424BD1FF0E6046C8
:101700000740013B6B60002B00D082E0002F00D12E
:1017100085E06B881BB2002B2CDB6B8847480340AD
:101720006B80A868431CAB60E3691A42FCD15B463E
:10173000E35C03704B462376002301936B8850468D
:1017400003422DD02E69337EDBB23D48194241D190
:10175000337EDBB201380028F8D143465B881BB2E8
:10176000002B00DA3FE76B88344A13406B8005207A
:10177000404263E66368314803406360E3691A42AC
:10178000FCD16068C0239B0203436360E3691A4293
:10179000FCD1C2E74B46237602235B420193CDE79F
:1017A000019E30004AE60620404247E6012B00D069
:1017B000E7E6002E00D1E4E67A688023DB021343DB
:1017C0007B600422FB691A42FCD16B68002B00D1BC
:1017D000CFE6D6E62768E0690242FCD1608B80B292
:1017E00066461E4200D17FE74B46034200D119E70F
:1017F00026766B888026760133436B806B880F4E8C
:1018000033406B806346184046424641731F019344
:1018100094E7012B00D084E7002F00D181E76068B6
:101820008023DB0203436360E3691A42FCD16B68E7
:10183000002B00D16DE774E7FFFBFFFFFFFEFFFF0A
:10184000FFFF00000E4B1A6A196A0E480240890F0A
:1018500089070D4801430A431A629A6902210A4323
:101860009A611A7F1D310A401A7719000822CB6845
:101870001A42FCD0024A136A80210B43136270475C
:10188000000800400000FF0F02030000024A9369B5
:1018900002218B439361704700080040024B034ACA
:1018A0005A6005221A60704710E000E0FFFFFF0059
:1018B00070B50B0E5E1EF6B2002B13D034000E4A2C
:1018C0000E4D802040025560956013680342FCD0A5
:1018D000013CE4B2FF2CF6D13306F61A084B9C46C5
:1018E00061447118044B59609960190080225202BA
:1018F0000B681342FCD070BD10E000E0FFFFFF005A
:10190000010000FF70B505000469A37BDB0705D566
:101910000123A3730368002B00D09847637B9B07C8
:1019200006D50223A3736B68002B01D028009847CB
:1019300070BD000010B5104BC3189B0A0333DBB217
:101940000E4A12789A4214D00C4A127D9A420ED056
:1019500028220A498A5C02209A420BD0F022FF32E8
:1019600007490020074B98470120404210BD012045
:1019700000E0002040B2F9E700D4FFBD00000020E5
:10198000784C0000250D000070B506000C00080022
:10199000434B98470500F4608F2242490120424B97
:1019A0009847E37BDB09FCD123889B0704D5002300
:1019B0002380E37BDB09FCD101232380E37BDB096C
:1019C000FCD1AB005B199A00384B9B185A882280D7
:1019D00019792172DB8863810C231340082B31D0E5
:1019E000002B3CD13149AB005A1992008A189289D8
:1019F00022835B199B00CB181B8A638301236373CB
:101A00002B4B9C423CD02B4B9C423CD02A4B9C42C3
:101A100041D02A4B9C466444A40A1234E3B2220605
:101A20000ED41F221A4001239340254A802153508F
:101A3000BFF34F8FBFF36F8F0131FF3153501360EE
:101A4000002070BD1949AB005A1992008A18D2685B
:101A5000A2615B199B00CB181B69E361CEE7042BE5
:101A6000CCD11249AB005A1992008A18107B20760B
:101A7000127C62765B199B00CB181B7A2375BDE73D
:101A8000104B1E60C5E70F4B5E600C4BE218920ACC
:101A90001232D3B2C5E70B4B9E601523C1E7C04697
:101AA00035190000784C0000250D000000000020D2
:101AB000002C0042003000420038004200D4FFBD3C
:101AC00000E100E0DC00002070B505000C0008001B
:101AD000384B98472C61E37BDB09FCD123889B07BB
:101AE00004D500232380E37BDB09FCD10123238081
:101AF000E37BDB09FCD183001B189A002E4B9B185B
:101B00005A88228019792172DB8863810C23134063
:101B1000082B30D0002B4AD1274983001A18920095
:101B20008A1892892283181880000818038A638310
:101B3000224B9C422CD0224B9C422CD0214B9C42CD
:101B400031D0214B9C466444A40A1234E3B20020F5
:101B500022060FD41F221A40012393401B4A8021E2
:101B60005350BFF34F8FBFF36F8F0131FF3153508D
:101B70001360002070BD104983001A1892008A1863
:101B8000D268A2611818800008180369E361CFE7E2
:101B90000F4B1D60D5E70E4B5D600B4BE218920AB0
:101BA0001232D3B2D6E70A4B9D601523D2E701204B
:101BB0004042DFE73519000000000020002C004201
:101BC000003000420038004200D4FFBD00E100E0D8
:101BD000DC000020C268138802210B431380704789
:101BE0000269138802210B4313807047C26813886F
:101BF00002218B43138070470269138802218B43B3
:101C00001380704770B506000D00140000690B4B7F
:101C1000984736690A4983001A1892008A18D560D5
:101C2000146152880C231340082B04D0ADB23583C5
:101C3000A4B2748370BDB561F461FBE7351900008F
:101C400000000020C36818888007C00F7047036930
:101C500018888007C00F7047002070470020704729
:101C600010B5C068044B9C466044800A1230C0B274
:101C7000024B984710BDC04600D4FFBDD10D0000F7
:101C800010B5064B1868C3689A7BD20700D410BD04
:101C900001229A7303689847F9E7C046DC000020E8
:101CA00010B5024B5868024B984710BDDC0000206D
:101CB0000519000010B5024B9868024B984710BDFB
:101CC000DC0000200519000070B500280ED00228A5
:101CD00007D0032807D0F725002809D1A5256D00D6
:101CE00006E00C4D04E0C425AD0001E0A5256D0023
:101CF000094C2000094EB0476A0829002000084B13
:101D000098472000074B98473C20074B98472000F6
:101D1000B04770BDBA02000038010020F908000089
:101D200035090000BD080000B5050000F0B5CE463D
:101D300000B586B00600894601921D005F1C380080
:101D40000D4B9847041E14D04B46037001302A00F7
:101D500001990A4B984703A9B38B0B804F60084B3E
:101D60004B808C603000074B984706B004BC91460E
:101D7000F0BD0C204042F8E7C9370000DD37000015
:101D80000080FFFFE907000010B50248024B9847AA
:101D900010BDC04654010020C907000070B582B0D4
:101DA0000D006B46DE1DDA710E4C8022120101001F
:101DB00020000D4B984701233200290020000B4CD6
:101DC000A0470924094E002808D001236A4607329B
:101DD00029000448B047013C002CF4D1002002B097
:101DE00070BDC04654010020D50700002D1D000025
:101DF000F0B583B00D00019116001F000D4C80223C
:101E00001201010020000C4B98473B0032002900D2
:101E100020000A4CA0470924084D002807D03B00A9
:101E2000320001990348A847013C002CF5D100205D
:101E300003B0F0BD54010020D50700002D1D0000A7
:101E4000014B18687047C046E800002010B50C4BE5
:101E50001B683422002B00D10432002801D001235A
:101E60001A4300213E20074B9847002803D1142035
:101E7000054B984710BD0548054B9847F7E7C04606
:101E8000E80000209D1D000095050000D44C0000D6
:101E9000113A000010B5062200213E200D4B984754
:101EA00000280ED114200C4B9847022200213E201E
:101EB000084B9847002808D1C8208000064B984757
:101EC00010BD0648064B9847ECE70448044B98477A
:101ED000F2E7C0469D1D000095050000D44C0000AF
:101EE000113A000010B5382200213E203F4B9847A0
:101EF000002856D114203E4B9847392200213E201D
:101F00003A4B9847002850D11420394B9847142257
:101F100000213E20354B984700284AD11420344BED
:101F20009847732200213E20304B9847002844D127
:101F300014202F4B9847562200213E202B4B9847C8
:101F400000283ED114202A4B98476C2200213E20C5
:101F5000264B9847002838D1D220264B9847382264
:101F600000213E20214B9847002832D11420204BDD
:101F70009847012200213E201C4B984700282CD175
:101F8000C82080001A4B98470E2200213E20174B94
:101F90009847002825D11420154B9847164B984791
:101FA00010BD1648164B9847A4E71448144B9847A1
:101FB000AAE71248124B9847B0E71048104B9847D1
:101FC000B6E70E480E4B9847BCE70C480C4B9847B9
:101FD000C2E70A480A4B9847C8E70848084B9847A1
:101FE000CEE70648064B9847D5E7C0469D1D000042
:101FF00095050000B5050000951E0000D44C0000BA
:10200000113A0000F0B5CE4600B58CB0964B98471B
:102010000C2200213E20954B984700284AD11420DD
:10202000934B984708AC934B220023CB23C2002349
:102030000B932000904B9847C3B2220040213E20D2
:102040008E4CA047002839D11420894B9847C022D4
:1020500000213E20854B9847002833D11420844B23
:10206000984704AC834B1033220023CB23C21B6858
:1020700013602000804B9847C3B2220040213E20CD
:102080007E4CA047002821D11420794B984708A8FE
:10209000794B9847802252420243D2B200213E201F
:1020A000724B9847002815D11420714B984723266E
:1020B0006E4D5FE07248734B9847B0E77048714BC4
:1020C0009847C1E76E486F4B9847C7E76C486D4B20
:1020D0009847D9E76A486B4B9847E5E76848694BEA
:1020E000984758E01420624B9847013401A8B8473C
:1020F000A04209D9102200213E20A8470028F1D093
:102100005F48604B9847EDE74B469C06A40F0120C3
:102110005D4B98470F22324070231A4300213E2026
:10212000524B984700283CD11420514B98475422D9
:10213000224300213E204D4B9847002835D11420E2
:102140004B4B98470020504B9847504B18684268BB
:102150005368013B5360002B2BDB42681368591C0A
:10216000116018785B2829D05D282FD00A2835D037
:102170001B2857D0B1463200454901A8454B984726
:1021800001A83D4B9847C3B201AA40213E203B4CD9
:10219000A0470028A2D11420354B98470024364F81
:1021A000A4E73748374B9847BEE73548354B984743
:1021B000C5E74168384B9847C0B2D3E73E2ED9D81F
:1021C0005938364B98470136F6B2D3E7002ED1D0B6
:1021D000013EF6B25A38314B9847CBE700202F4BDF
:1021E0009847012200213E20204B9847002811D11A
:1021F000C82080001E4B98470E2200213E201B4B1A
:10220000984700280AD11420194B98470CB004BCF9
:102210009146F0BD1A481B4B9847E9E71848194BFF
:102220009847F0E71A381D4B9847012200213E20BD
:102230000E4B984700280ED1C82080000C4B9847C1
:102240000E2200213E20094B9847002807D1142078
:10225000074B9847DAE70A480A4B9847ECE70848E3
:10226000084B9847F3E7C046951E00009D1D0000EF
:10227000950500008C4C0000593C0000F11D000049
:10228000D44C0000113A00004D1E00004000002018
:10229000E44C0000153C0000253A0000C91C000079
:1022A000F0B5CE4600B58CB08C4B98470C2200217F
:1022B0003E208B4B984700284DD11420894B9847DE
:1022C00008AC894B2433220023CB23C200230B9379
:1022D0002000864B9847C3B2220040213E20844C08
:1022E000A04700283BD114207E4B9847C0220021F4
:1022F0003E207B4B9847002835D11420794B9847D6
:1023000004AC794B3433220023CB23C21B68136007
:102310002000764B9847C3B2220040213E20744CE7
:10232000A047002823D114206E4B984708A86F4B74
:102330009847802252420243D2B200213E20684B8D
:102340009847002817D11420664B9847694B994647
:10235000664D634F42E06848684B9847ADE7664872
:10236000664B9847BFE76448644B9847C5E76248A7
:10237000624B9847D7E76048604B9847E3E7604B6C
:10238000019331E05C485D4B984737E01420554B92
:102390009847013401A8B047A04209D91022002172
:1023A0003E20B8470028F1D05348544B9847EDE7FA
:1023B000544B186842685368013B5360002B23DB81
:1023C00042681368591C11601878FD2203005B3BBA
:1023D00013421ED00A2825D01B2856D04B461B6816
:1023E000002BCCD0484B019301A8A847C3B201AA47
:1023F00040213E203E4CA0470028C3D11420394B39
:1024000098470024394EC5E74168404B9847C0B211
:10241000DBE7384A136859424B41136002203C4BBA
:102420009847DBE700203A4B9847012200213E20E5
:102430002B4B9847002820D1C8208000294B984773
:102440000E2200213E20264B9847002819D1142047
:10245000244B9847274B1B683422002B00D138228D
:1024600000213E201E4B9847002832D114201D4BDE
:1024700098470CB004BC9146F0BD1F481F4B9847CD
:10248000DAE71D481D4B9847E1E71A38204B98477B
:10249000012200213E20124B9847002811D1C8206C
:1024A0008000104B98470E2200213E200C4B98478D
:1024B00000280AD114200B4B98471648164B984712
:1024C000C8E70D480D4B9847E9E70B480B4B984779
:1024D000F0E70948094B9847C8E7C046951E000039
:1024E0009D1D0000950500008C4C0000593C00002B
:1024F000F11D0000E8000020D44C0000113A00005B
:102500004F464600400000204F4E2000253A000074
:10251000C91C000074010020E10A000070B50E2201
:1025200000213E206B4B9847002806D114206A4BAF
:1025300098476A4B9847002595E06948694B98474A
:10254000F4E7694B1B688022002B00D14032D2B2E5
:1025500000213E205F4B9847002809D114205E4B94
:102560009847614B1A68534253415B421D407FE0DC
:102570005B485C4B9847F1E7802200213E20554B99
:1025800098470025002873D05548564B98476FE070
:102590004168564B9847C4B277E0002D1AD1524B90
:1025A0001B688F22002B00D14032D2B200213E2086
:1025B000484B9847002809D11420474B98474A4B6D
:1025C0001B680F25002B12D1103510E04448454BF5
:1025D0009847F1E7102D1FD0102200213E203D4BDF
:1025E0009847002828D114203B4B9847013D2022D2
:1025F00040213E20374B9847002821D11420364BEC
:102600009847102200213E20324B984700281BD1CA
:102610001420314B984726E08F2200213E202D4B7D
:102620009847002804D114202B4B98470F25DEE74C
:102630002B482C4B9847F6E729482A4B9847D2E776
:102640002748284B9847D9E72548264B9847DFE786
:10265000220040213E201F4B9847002831D11420F2
:102660001D4B98470135102D00D16AE7202D83D0EE
:102670001F4B186842685368013B5360002B87DB8F
:1026800042681368591C11601C780020194B984748
:10269000082C82D02300223B5A2BD9D9202CD7D00A
:1026A0001B2CE0D10120134B9847012200213E2032
:1026B000084B9847002808D1C8208000064B98474F
:1026C00070BD0D48074B9847C9E70548054B98472B
:1026D000F2E7C0469D1D000095050000951E000014
:1026E000D44C0000113A0000E8000020253A000018
:1026F00040000020C91C0000E84C000010B5104B41
:102700001B78002B18D10F4B1C690F480F4B9847B3
:1027100020000F4B98470F4C0F4A104BA047002248
:102720000F4BA0470F4B98470F4B1860044A137884
:1027300001214B40137010BD03480C4B9847F5E73F
:102740003C0000200038004210010020F908000081
:102750008136000019310000C3F5285C8FC2D53FD7
:102760000000E03F19360000EC000020BD0800002A
:1027700070B5C024E40580259823E5500A20024B5B
:1027800098479423E55070BD95050000014B1868EB
:102790007047C046EC000020F8B5C022D205942056
:1027A00080231350882153501A4B20311A4C5C500F
:1027B000C02424065C50C725595D0124A143595506
:1027C000873D84215550C626995D04273943995584
:1027D00015506E38114B984711492620114B9847D8
:1027E000114B9A6911490A409A619969C022920471
:1027F0000A439A6126200E4B98470E49FA235B0044
:10280000CB600D4B0B610C7504310C480C4B984799
:10281000F8BDC04600440041800000401907000098
:10282000FD2600005106000000180040FFFFFFF8E1
:1028300009070000EC00002071270000740100204F
:102840001D0B0000F0B5D6464F4680B58DB0924BBB
:102850009847924B98479248924B9847FA204000ED
:10286000914B98470C2200213E20904B984700281E
:1028700076D114208E4B984708AC8E4B1A6808927C
:102880009A88A2809B79A37109220021272068449D
:10289000894B98472000894B9847C3B222004021BA
:1028A0003E20874CA04700285ED11420804B9847DB
:1028B000C02200213E207D4B9847002858D114208B
:1028C0007B4B984704AC7F4B220023CB23C21B6871
:1028D00013602000794B9847C3B2220040213E206C
:1028E000774CA047002847D11420714B984708A87F
:1028F000724B9847802252420243D2B200213E20BE
:102900006A4B984700283BD11420694B98470A220C
:10291000002101A8684B98476B4B99466B4D634C5F
:10292000C84706000A21A8470F000A213000684B5B
:10293000984702003B00674901A8674EB04701A8CD
:102940005E4B9847C3B201AA40213E205C4EB0477F
:10295000002819D11420564B98470026574F1BE0EA
:102960005E485F4B984784E75C485D4B98479CE71F
:102970005A485B4B9847A2E75848594B9847B3E7EA
:102980005648574B9847BFE75448554B9847E1E79F
:102990001420474B9847013601A8B847B04209D9DF
:1029A000102200213E20A0470028F1D04B484C4B7C
:1029B0009847EDE74B4E07E041684B4B9847C0B254
:1029C0000A280ED01B283ED0306842685368013B6D
:1029D0005360002BF0DB42681368591C11601878B3
:1029E000EEE70020414B98470026344F2F4B9A4684
:1029F00003E014202E4B9847013601A8B847B04297
:102A000009D9202240213E20D0470028F1D0334868
:102A1000334B9847EDE70026284F244B9A4603E0B6
:102A20001420234B9847013601A8B847B04200D87C
:102A300076E7102200213E20D0470028F0D027481A
:102A4000274B9847ECE70120284B984701220021AB
:102A50003E20164B9847002815D1C8208000144B03
:102A600098470E2200213E20104B984700280ED197
:102A700014200F4B98470A481D4B98470DB00CBCCB
:102A800091469A46F0BD1548154B9847E5E713481F
:102A9000134B9847ECE7C046951E000099270000AD
:102AA00074010020A50A0000B50500009D1D00006E
:102AB00095050000E04D0000EF370000593C000094
:102AC000F11D00004C4E00008D270000F930000081
:102AD0002D2F0000404E0000153C0000D44C00009B
:102AE000113A000040000020253A0000C91C0000F7
:102AF000E10A000010B5012200213E20064B984754
:102B0000002804D1C8208000044B984710BD044819
:102B1000044B9847F6E7C0469D1D00009505000050
:102B2000D44C0000113A000030B595B00C220021C1
:102B30003E20334B9847002847D11420314B98470B
:102B4000314B98470AAC314B1033220023CB23C2C0
:102B500003CB03C21B781370132200213D2068446D
:102B60002B4B984720002B4B9847C3B222004021A3
:102B70003E20294CA04700282BD11420214B9847F8
:102B8000264B9847002828D0204B38336A4623CB61
:102B900023C219681160998891809B7993711522DD
:102BA0000021132068441A4B98476846194B9847F0
:102BB000C3B26A4640213E20174CA04700281BD1D3
:102BC0001420104B984715B030BD1548154B984749
:102BD000B3E71348134B9847CFE7C02200213E309C
:102BE000074B9847002803D11420064B9847CBE7A2
:102BF0000B480C4B9847F7E709480A4B9847DFE723
:102C00009D1D000095050000F52A0000E04D000024
:102C1000EF370000593C0000F11D0000411E00008C
:102C2000D44C0000113A000070B5304B9847304B3F
:102C30009847304B98473048304B9847304D314E8D
:102C40000CE042681368591C1160187811E00020EC
:102C50002D4B98472D4B98472D4B98472D4CA84707
:102C6000206842685368013B5360002BE9DA4168F1
:102C7000B04731383B28F2D88000274B1B589F467D
:102C80000020214B9847214B9847244B9847E5E774
:102C900000201D4B98471D4B9847214B9847DDE777
:102CA0000020194B9847194B98471E4B9847D5E77A
:102CB0001C2200213E201C4B9847002803D11420E1
:102CC0001A4B9847CAE71A480C4B9847F7E718225F
:102CD00000213E20144B9847002803D11420134BA9
:102CE0009847BBE71248054B9847F7E715010000E6
:102CF000891D0000E51E00005C4E0000113A000036
:102D0000292B0000253A0000C91C0000F52A00000C
:102D10001D25000040000020F04C000005200000B0
:102D2000A1220000452800009D1D0000950500001F
:102D3000D44C000010B50B00002809D11100180078
:102D4000054B9847002800DB10BD01204042FBE7FF
:102D500001204042F8E7C046B12D000010B50B003D
:102D60000138022809D811001800054B984700289F
:102D700000DB10BD01204042FBE701204042F8E7A4
:102D8000D52D000070B50600064D2B68986800210F
:102D9000054CA0472B6858680021A047034B1E60D4
:102DA00070BDC04640000020A93A00000401002088
:102DB00010B50400054B1868002804D08AB2210021
:102DC000034B984710BD0020FCE7C04604010020DB
:102DD0002908000010B50400054B1868002804D02D
:102DE0008AB22100034B984710BD0020FCE7C04683
:102DF00004010020F507000010B5044C2000044B2E
:102E000098472000034B984710BDC0462C01002076
:102E1000F90C0000852D0000002243088B4274D37A
:102E200003098B425FD3030A8B4244D3030B8B42CB
:102E300028D3030C8B420DD3FF22090212BA030CD4
:102E40008B4202D31212090265D0030B8B4219D3B5
:102E500000E0090AC30B8B4201D3CB03C01A5241D5
:102E6000830B8B4201D38B03C01A5241430B8B421D
:102E700001D34B03C01A5241030B8B4201D30B0306
:102E8000C01A5241C30A8B4201D3CB02C01A52412D
:102E9000830A8B4201D38B02C01A5241430A8B42F0
:102EA00001D34B02C01A5241030A8B4201D30B02D9
:102EB000C01A5241CDD2C3098B4201D3CB01C01AF3
:102EC000524183098B4201D38B01C01A52414309FD
:102ED0008B4201D34B01C01A524103098B4201D3EB
:102EE0000B01C01A5241C3088B4201D3CB00C01A58
:102EF000524183088B4201D38B00C01A52414308D0
:102F00008B4201D34B00C01A5241411A00D20146F4
:102F1000524110467047FFE701B5002000F0F0F87D
:102F200002BDC0460029F7D076E7704703460B4341
:102F30007FD4002243088B4274D303098B425FD3B2
:102F4000030A8B4244D3030B8B4228D3030C8B42DE
:102F50000DD3FF22090212BA030C8B4202D31212C4
:102F6000090265D0030B8B4219D300E0090AC30B99
:102F70008B4201D3CB03C01A5241830B8B4201D346
:102F80008B03C01A5241430B8B4201D34B03C01A2F
:102F90005241030B8B4201D30B03C01A5241C30AA7
:102FA0008B4201D3CB02C01A5241830A8B4201D318
:102FB0008B02C01A5241430A8B4201D34B02C01A02
:102FC0005241030A8B4201D30B02C01A5241CDD2A7
:102FD000C3098B4201D3CB01C01A524183098B42F2
:102FE00001D38B01C01A524143098B4201D34B01DB
:102FF000C01A524103098B4201D30B01C01A52413E
:10300000C3088B4201D3CB00C01A524183088B42C4
:1030100001D38B00C01A524143088B4201D34B00AD
:10302000C01A5241411A00D201465241104670471F
:103030005DE0CA0F00D04942031000D34042534024
:1030400000229C4603098B422DD3030A8B4212D3E4
:10305000FC22890112BA030A8B420CD38901921116
:103060008B4208D3890192118B4204D389013AD053
:10307000921100E08909C3098B4201D3CB01C01A28
:10308000524183098B4201D38B01C01A524143093B
:103090008B4201D34B01C01A524103098B4201D329
:1030A0000B01C01A5241C3088B4201D3CB00C01A96
:1030B000524183088B4201D38B00C01A5241D9D2AE
:1030C00043088B4201D34B00C01A5241411A00D22F
:1030D0000146634652415B10104601D34042002B2B
:1030E00000D54942704763465B1000D3404201B5AA
:1030F000002000F005F802BD0029F8D016E770475F
:103100007047C04610B50023002802D000F018FB1D
:10311000431C180010BDC046F0B557464546DE4674
:103120004E46E0B50C0398464E00230B87B00700CF
:1031300092469B46760DCD0F002E6BD06D4B9E4276
:1031400035D080245B46420F2404DB0014431C432B
:10315000C3009946684BA3469C460023002766445B
:10316000029343461C035A00DB0F5046240B520DBA
:10317000984600D176E05F4B9A426DD08023410F94
:103180001B040B435C49E4008C461C43C300002035
:1031900062444146B6186940721C01919446074347
:1031A0000F2F00D9B0E0554ABF00D25997465B4671
:1031B0000343994600D087E000239B46023308274B
:1031C0000293CEE742460192022867D0032800D13D
:1031D0000EE2012800D062E100230024002299467B
:1031E00001990140CDB2002112030B0D120B1B05FA
:1031F0001343434A240513401C436400ED0764084D
:103200002C434846210007B03CBC90469946A24654
:10321000AB46F0BD034399464FD05B46002B00D12F
:1032200089E1584600F06EFA03000B3B1C2B00DDD1
:103230007AE11D22D31A3A0001005C46DA400839CF
:103240008C4013008F4023439B46B94600232D4EEC
:103250000027361A029384E7534623432AD10024D9
:10326000022096E75346234320D0002C00D157E19B
:10327000200000F047FA03000B3B1C2B00DD49E166
:103280001D21CB1A51460200D9405346083A9440BA
:1032900093400C431B4A121A00207AE70125019B38
:1032A000144C1D400023002299469CE70024002274
:1032B00001206EE7534603206BE700239B46013352
:1032C0000427002602934CE7032381460C27029330
:1032D00047E780220023002512039946054C82E728
:1032E0005C464B4602986FE75C464B460195029858
:1032F0006AE7C046FF07000001FCFFFF644E0000C4
:10330000FFFF0F800DFCFFFF4A464946170C1A0CC1
:103310001B041B0C08041900000C414315008846CF
:1033200019007D43794303958946290015004543DB
:103330004D44029545462D0CAA46029D5544A9458B
:1033400006D98A46802149028946CA4451460391DA
:10335000290C0491414609042D04090C88462900D2
:10336000250C24044144240C059121004143884646
:10337000210079438A466843414650448146080CFF
:1033800048446F43824503D98021490289464F440E
:10339000010C894639004944029141460F040499C1
:1033A0003F0C88460004C0198044414604915946A8
:1033B0000F0C0904090C884659438A4639005143C9
:1033C000894641464A435146090C8B467B43D218F5
:1033D0005A44934203D980235B029B46D944514609
:1033E0000904090C8A46414661437C43130C1204CC
:1033F0004B445244A1468A463C0041466C434D43EF
:1034000051464D440F0C7D19A94503D9802149022D
:1034100088464444049F0399B84641448B468345FB
:10342000804141428846514608042F04000C3F1851
:103430005846029910188946904292414F44BA4624
:10344000524299469346C244D144CB448F42BF4135
:10345000C245894199459B41934592417F424942EA
:103460002D0C52420F435B4213437F19FF185B46FA
:103470003C19DB0D059A64021C43430213435D1E95
:10348000AB415A46C00D034352021343E20156D5E5
:1034900001205A0803401343E207134364085A48C3
:1034A000604400284DDD5A0709D00F221A40042A33
:1034B00005D01A1D9A429B415B42E4181300E201B9
:1034C00004D58020514AC00014406044504A9042C4
:1034D00000DDE3E60125DB0862071A436402019B75
:1034E0009146220B4405640D1D407CE6802259461E
:1034F0001203114208D0144206D122431203120BC8
:1035000045469946434C6EE65B461A431203120B3E
:10351000404C68E603005446283B9C400023B9E633
:1035200000F0F0F82030A6E60300283B9F4000237F
:10353000BB4699468AE600F0E5F8203074E6B446CA
:10354000ADE701252A1A382A06DD019B00241D401B
:1035500000230022994646E61F2A21DC2025200070
:10356000AD1A1E00AB40A840D6405D1EAB413043B3
:103570001843D440430709D00F230340042B05D040
:103580000300181D98429B415B42E418230221D599
:103590000125019B01241D4000230022994622E6BB
:1035A0001F2521006D42281AC1400800202A1DD085
:1035B0005F35AA1A944023435C1EA34107250343A9
:1035C0001D400022002D09D00F2200241A401800AF
:1035D000042AD6D1030065076402220BDB082B43C3
:1035E00001259946019B00241D40FCE50024E2E7EB
:1035F000802201251203224301991203120B0D4070
:103600009946044CEFE5C046FF030000FFFFFFFEB4
:10361000FE070000FF07000030B5134D0A034B0002
:10362000120B5B0DC90F0024AB4210DD0F4CA342FF
:103630000FDC80240E4D64032243ED1A1F2D0BDD99
:103640000C48C31ADA405442002900D1140020006B
:1036500030BD094BCC18FAE7084CE840A446634457
:103660009A400243EFE7C046FE0300001D0400003D
:103670003304000013040000FFFFFF7FEDFBFFFF9A
:1036800070B5002830D0C317C4185C40C50F2000A7
:1036900000F038F8174B184A1B1AD21A1F2A18DDE7
:1036A000164AD21A9440002224035B05240B5B0DBA
:1036B0000021100024030A0D240B12052243104C94
:1036C0001B05224013435B00ED075B082B431900E9
:1036D00070BD210091400A000B21081AC4405B050F
:1036E0002403240B5B0DE3E70025002300240022C4
:1036F000DEE7C0461E04000033040000130400008F
:10370000FFFF0F801C2101231B04984201D3000CF2
:1037100010391B0A984201D3000A08391B09984244
:1037200001D30009043902A2105C40187047C0465A
:10373000040302020101010100000000000000007A
:10374000414208401C2101231B04984201D3000C74
:1037500010391B0A984201D3000A08391B09984204
:1037600001D30009043902A2105C401A7047C04618
:103770001B1C1D1D1E1E1E1E1F1F1F1F1F1F1F1F68
:1037800070B500260C4D0D4C641BA410A64209D147
:10379000002601F0D3FB0A4D0A4C641BA410A6427C
:1037A00005D170BDB300EB5898470136EEE7B30082
:1037B000EB5898470136F2E7484F0000484F0000A9
:1037C000484F00004C4F000010B5034B0100186833
:1037D00000F060F810BDC04640000020002310B586
:1037E0009A4200D110BDCC5CC4540133F8E7030009
:1037F0008218934200D1704719700133F9E7000035
:1038000070B50500002910D00C1F2368002B00DACA
:10381000E418280000F01EFD1D4A1368002B05D196
:1038200063601460280000F016FD70BDA34209D942
:10383000216860188342F3D118685B6841182160E1
:10384000EEE713005A68002A01D0A242F9D919689C
:103850005818A0420BD120680918581819608242E4
:10386000E0D110685268411819605A60DAE7A04246
:1038700002D90C232B60D5E721686018824203D15E
:10388000106852684118216062605C60CAE7C046F7
:1038900008010020032370B5CD1C9D4308350600A8
:1038A0000C2D1ED20C25A9421DD8300000F0D2FCF0
:1038B000254A14682100002919D1244C2368002BC3
:1038C00003D1300000F0DEF820602900300000F065
:1038D000D9F8431C2CD10C233000336000F0BBFC22
:1038E00003E0002DDFDA0C233360002070BD0B688D
:1038F0005B1B1AD40B2B03D90B60CC18256003E09B
:103900008C420ED163681360300000F0A4FC2000EC
:1039100007220B30231D9043C31AE7D05A42E250CE
:10392000E4E74B6863600C00EEE70C004968C2E70F
:103930000323C41C9C43A042E0D0211A300000F0B5
:10394000A1F8431CDAD1C6E7080100200C010020D1
:1039500070B505000E00002804D08369002B01D14A
:1039600000F05AFBAB69AC68002B02D1280000F0D4
:1039700053FB244B9C420FD16C68A3891B0702D5D3
:103980002369002B20D12100280000F0C3F9002872
:103990001AD00120404270BD1B4B9C4201D1AC6843
:1039A000EBE71A4B9C42E8D1EC68E6E7013B0136B5
:1039B000A360002B04DAA269934216DB0A2914D013
:1039C00023685A1C226019703178A3680029EDD150
:1039D000013BA360002B0FDA22000A31280000F01F
:1039E00043F9431CD5D00A20D5E72200280000F077
:1039F0003BF9431CE8D1CCE70A2023685A1C22601B
:103A00001870C8E7C84E0000E84E0000A84E00003D
:103A100010B5034B01001868FFF79AFF10BDC046B0
:103A20004000002070B505000C00002804D0836918
:103A3000002B01D100F0F0FA0F4B9C420ED16C68C4
:103A40002100280000F002FF002811D16368013B2B
:103A5000636023685A1C2260187870BD074B9C4233
:103A600001D1AC68ECE7064B9C42E9D1EC68E7E792
:103A700001204042F1E7C046C84E0000E84E000079
:103A8000A84E0000002370B5064C05000800236016
:103A9000FDF780F9431C03D12368002B00D02B6075
:103AA00070BDC046900100204A424A41802310B5B3
:103AB0005200DB0000F002F810BD0000F0B51D0060
:103AC0004F4B85B01E6804000F000092002E05D0F9
:103AD000B369002B02D1300000F09EFA494B9C42A2
:103AE00050D17468009B022B05D0012B00D984E0D3
:103AF000002D00DA81E02100300000F00BFA616B4C
:103B0000002908D023004433994202D03000FFF747
:103B100077FE002363630023A3616360A3891B0610
:103B200003D521693000FFF76BFEA389364A1340A5
:103B3000A381009B022B5AD003AB02AA21003000C4
:103B400000F01CFBA3891843A081002D24D1029D05
:103B50002800FFF739FE0195071E42D1029B019311
:103B6000AB4239D1012040420223A2891343A381F1
:103B70000023A36023004733236023610123636193
:103B800005B0F0BD214B9C4201D1B468AAE7204B9F
:103B90009C42A7D1F468A5E7002FD9D0B369002BC8
:103BA00002D1300000F038FA009B012B03D1A38929
:103BB000009A1A43A2810820A389276027616561C2
:103BC000184018D0012018400023984211D06D42AF
:103BD000A360A5611800D3E70198FFF7F5FD071E64
:103BE000C0D08023A289019D1343A381D6E7002082
:103BF000BAE7A560C4E7A060C2E701204042BFE782
:103C000040000020C84E00005CF3FFFFE84E0000BB
:103C1000A84E00000EB410B59DB002A90290086134
:103C20000B48822488604861012040421FABC88154
:103C3000084804CBA400006801938C8100F06EFB5F
:103C40000023029A13701DB010BC08BC03B01847C3
:103C5000FFFFFF7F400000200023C25C0133002AE9
:103C6000FBD1581E70470000F8B505000E00140087
:103C7000002804D08369002B01D100F0CDF9224B3C
:103C80009C422DD16C68A369A360A3891B0731D521
:103C90002369002B2ED023682269F7B2981A636932
:103CA000F6B2984205DB2100280000F033F9002825
:103CB00026D1A3680130013BA36023685A1C22600F
:103CC0001F706369984204D0A389DB071AD50A2EB6
:103CD00018D12100280000F01DF9002812D00FE0B3
:103CE0000A4B9C4201D1AC68CDE7094B9C42CAD13A
:103CF000EC68C8E72100280000F00CF80028CAD0C2
:103D0000012676423000F8BDC84E0000E84E0000A3
:103D1000A84E0000364B70B51D6806000C00002D43
:103D200005D0AB69002B02D1280000F075F9314BAA
:103D30009C420FD16C680C23E25E93B219072DD41C
:103D4000D90611D409230120336037331343A381EB
:103D5000404270BD284B9C4201D1AC68EBE7274B39
:103D60009C42E8D1EC68E6E75B0713D5616B00295C
:103D700008D023004433994202D03000FFF740FDC1
:103D8000002363632422A3899343A38100236360F8
:103D9000236923600823A2891343A3812369002B8D
:103DA0000BD1A0218022A389890092000B4093426D
:103DB00003D02100300000F009FA0123A28913404A
:103DC00011D00023A36063695B42A36100202369D3
:103DD0008342BED10C23E25E1306BAD540231343BF
:103DE000A3810138B5E7920700D46369A360EDE7CA
:103DF00040000020C84E0000E84E0000A84E000021
:103E0000F7B58A8905000C00130760D44B68002BB6
:103E100004DC0B6C002B01DC0020FEBDE76A002FE8
:103E2000FAD000232E682B6080235B011A4034D027
:103E3000606DA3895B0706D56368C01A636B002BAE
:103E400001D0236CC01A0200216A00232800E76A0F
:103E5000B847A189431C06D12B681D2B31D82C4AA9
:103E6000DA40D3072DD50023636023692360CB0498
:103E700005D5431C02D12B68002B00D16065616B16
:103E80002E600029C8D023004433994202D0280074
:103E9000FFF7B6FC00206063BFE70123216A28001A
:103EA000B847431CC5D12B68002BC2D01D2B01D0B5
:103EB000162B01D12E60AFE74023A2891343A381C3
:103EC000ABE740230B430120A3814042A5E70F69E4
:103ED000002FA1D00B680F60DB1B0193002392071A
:103EE00000D14B69A360019B002B00DC94E7019B90
:103EF0003A00216A2800A66AB047002803DC402364
:103F0000A2891343DFE7019B3F181B1A0193EAE7DD
:103F1000010040200B6970B505000C00002B01D199
:103F2000002070BD002804D08369002B01D100F06F
:103F300073F80B4B9C4209D16C680C22A35E002BDA
:103F4000EED021002800FFF75BFFEAE7054B9C421B
:103F500001D1AC68F1E7044B9C42EED1EC68ECE790
:103F6000C84E0000E84E0000A84E000010B5011E2B
:103F700005D1054B0549186800F0DEF810BD044B6B
:103F80001868FFF7C7FFF9E7A44E0000153F0000CF
:103F90004000002010B5024900F0CEF810BDC04628
:103FA000153F0000002310B50400036043608360E8
:103FB00081814366C28103614361836119000822E4
:103FC0005C30FFF714FC054B24626362044BA36270
:103FD000044BE362044B236310BDC0466D490000EF
:103FE00095490000CD490000F949000070B56825E9
:103FF0004A1E55430E0029007431FFF74BFC041E86
:1040000008D000212A00016046600C30A0606832B0
:10401000FFF7EDFB200070BD836913B50400002B92
:1040200028D18364C3640365134B144A1B688262FE
:104030000193984201D101238361200000F020F810
:104040006060200000F01CF8A060200000F018F86C
:104050000022E06004216068FFF7A4FF012209212B
:10406000A068FFF79FFF02221221E068FFF79AFF86
:104070000123A36113BDC046A44E0000953F00007C
:10408000F8B51E4B07001E68B369002B02D1300043
:10409000FFF7C2FF4836B4687368013B04D5336844
:1040A000002B07D03668F6E70C22A55E002D0DD058
:1040B0006834F2E704213800FFF798FF30600028E9
:1040C000F0D10C2304003B602000F8BD0123200048
:1040D0005B42E3810233A38165662560A56065606C
:1040E00025616561A561082229005C30FFF77FFB2F
:1040F0006563A563A564E564E6E7C046A44E0000D9
:10410000F7B54830040000260191002C01D13000A1
:10411000FEBDA5686768013F01D52468F5E7AB8956
:10412000012B07D90E22AB5E013303D02800019B7F
:10413000984706436835EEE7F7B504000700002608
:1041400001914834002C01D13000FEBD6368A568A0
:104150000093009B013B009301D52468F2E7AB89F3
:10416000012B08D90E22AB5E013304D029003800A0
:10417000019B984706436835EBE7000070B50E00D9
:104180001D000E23C95E90B01400002907DA002339
:104190002B60B3891B0611D48023DB000FE001AA3A
:1041A00000F056FC0028F2DBF022029B12021340C2
:1041B000054A9B185A4253412B60EDE740230020EB
:1041C000236010B070BDC04600E0FFFFF7B50226C7
:1041D0008B8905000C00334206D02300473323604F
:1041E000236101236361F7BD01AB6A46FFF7C6FF98
:1041F000009907002800FFF74DFB002808D10C228A
:10420000A35E9A05EFD4032293431E43A681E4E7FD
:104210000F4BAB628023A28920601343A381009BD4
:1042200020616361019B002B0DD00E23E15E28000D
:1042300000F020FC002806D00322A38993431A0033
:1042400001231343A381A0893843A081CBE7C04653
:10425000953F000070477047F0B58E6885B0070045
:104260000C00039201939E4239D890238A89DB0087
:104270001A4234D00325096923685B1A02936369E3
:1042800002985D43EB0F5D19019B6D1001331B1804
:10429000AB4200D91D00530532D529003800FFF785
:1042A000F9FA061E09D10C233B6040230120A289A4
:1042B00040421343A38105B0F0BD029A2169FFF784
:1042C0008DFAA389144A1A4080231343A381029BC9
:1042D0002661F61826606561019EED1AA560019BB6
:1042E000B34200D21E0032000399206800F0F3FBB5
:1042F000A36800209B1BA36023689E192660DAE751
:104300002A00380000F0F9FB061EE0D121693800D0
:10431000FFF776FAC7E7C0467FFBFFFFF0B59FB017
:10432000029005938B890F0016001B0611D50B69AF
:10433000002B0ED14021FFF7ADFA3860386100281C
:1043400005D10C23029A013813601FB0F0BD402341
:104350007B61002306AD6B6120336B761033AB7647
:1043600034002378002B47D1A31B04930DD0A31B4B
:10437000320039000298FFF76FFF431C00D1B5E00F
:104380006A69049B944663446B612378002B00D1D7
:10439000ACE00122002352426A6002A95432521852
:1043A00001342B60EB60AB601370AB65584E052297
:1043B0002178300000F084FB621C002820D129689D
:1043C000CB0604D5532302AE20309B1918700B077F
:1043D00004D553232B2002AE9B19187023782A2B67
:1043E00016D000200A21099B2278303A092A55D993
:1043F000002815D0099313E0252BB5D00134B0E780
:104400000123801B8340296814000B432B60CDE7F8
:10441000059B181D1B680590002B39DB09931400C0
:1044200023782E2B0BD16378621C2A2B3ED1059B5F
:1044300002341A1D1B680592002B34DB0793354E9E
:1044400021780322300000F03BFB002806D04023F7
:10445000801B83402A68013413432B602178062295
:104460002D48661C297600F02BFB002846D02B4BEC
:10447000002B2FD12968059B0722C90528D59B1839
:104480009343083305936B69039A9B186B6167E745
:104490005B42EB6002230B432B60C0E74B430134CC
:1044A0009B180120A0E701235B42C7E7002314000B
:1044B0000A201A006B6021783039092903D9002BB2
:1044C000BDD00792BBE74243013452180123F2E703
:1044D0000733D5E705AB00933A00114B290002984A
:1044E00000E000BF0390039B0133CCD1BB890B9844
:1044F0005B0600D429E70120404226E705AB009384
:104500003A00074B2900029800F07AF8EAE7C04623
:10451000084F00000E4F0000124F00000000000086
:1045200059420000F7B5150001938A680B690090A5
:104530000C00934200DA130022002B604332127801
:10454000002A01D001332B6023689B0602D52B681B
:1045500002332B60062723681F4027D023004333F4
:104560001B785A1E93412268920630D4220001998A
:1045700043320098089EB047431C25D0062320688C
:104580002A68E16803400025042B03D18D1AEB4310
:10459000DB171D40A3682269934201DD9B1AED18C9
:1045A0000027BD4220D1002010E00137E3682A68CF
:1045B0009B1A9F42D2DA22000123193201990098F6
:1045C000089EB047431CF0D101204042FEBD302080
:1045D000E1184331087021005A1C45310978A218AE
:1045E000433202331170C1E7220001231A320199CC
:1045F0000098089EB047431CE6D00137D1E7000081
:10460000F0B58BB006920A004332079305900492EE
:104610000A7E0C00109B6E2A00D18FE017D8632A07
:104620002CD008D8002A00D199E0582A54D026006E
:104630004236327029E0642A01D0692AF7D1216814
:104640001A68080623D5111D1960156825E0732A1C
:1046500000D188E008D86F2A29D0702AE7D120221B
:1046600009680A43226003E0752A20D0782ADED147
:1046700022007821453211706C4A30E00E001A6831
:104680004236111D196013683370012379E0490621
:10469000D9D5111D19600023D55E002D03DA2D2315
:1046A000049A6D421370624B0A2703932FE020682F
:1046B0001968050603D5081D18600D6805E0400659
:1046C000F9D50D68081D1860ADB2594B0827039342
:1046D0006F2A18D00A2716E045310A70544A03920F
:1046E0001A682168101D18601568080622D5CB07C6
:1046F00002D52023194321601027002D03D1202348
:1047000022689A4322602300002243331A706368B0
:10471000A360002B5CDB0422216891432160002D03
:1047200058D1049E002B64D02600039B42361B7890
:1047300033705EE04806DAD5ADB2D8E709681A688A
:10474000080605D5111D1960136862691A6006E034
:104750004906F7D5111D19601368A28A1A80002333
:10476000049E236154E01A68111D19601668002127
:104770006268300000F0A4F9002801D0801B60605E
:10478000636823610023049A137041E023693200B7
:1047900006990598079DA847431C43D02368002528
:1047A0009B070FD4099BE06898423DDA18003BE074
:1047B00022000123193206990598079EB047431C31
:1047C00030D00135E368099A9B1A9D42F0DBE9E796
:1047D000002DA9D0049E28003900FEF7A3FB039BFF
:1047E000013E5B5C280033703900FEF715FB051EA7
:1047F000F1D1082F09D12368DB0706D56368226948
:10480000934202DC3023013E3370049B9B1B2361E7
:10481000079B09AA00932100069B0598FFF782FEDB
:10482000431CB3D1012040420BB0F0BD2A4F000021
:10483000194F0000092210B5838913400022092B6B
:1048400002D1FFF793FB0200100010BDF8B5050080
:104850000C00002804D08369002B01D1FFF7DCFB9A
:104860003D4B9C420AD16C68002363600C23E25EDE
:1048700093B299060CD50120404268E0374B9C4228
:1048800001D1AC68F0E7364B9C42EDD1EC68EBE728
:1048900059074AD4D90605D409232B60373313436B
:1048A000A381E8E7082633420AD021002800FFF759
:1048B00031FB0028DFD1A389A060B343A381A061AD
:1048C0000423A2891343A3812369002B03D1210070
:1048D0002800FFF77BFC0C23E75EBEB2B3070FD0C6
:1048E0000123A3811F4B20491868FFF709FC092306
:1048F000A7811E409E4203D121002800FFF780FAC5
:1049000023692269236028006369216A656AA847D0
:10491000020060600020824219DCA189824217D126
:1049200020230B43A381013811E0616B0029CBD018
:1049300023004433994202D02800FEF761FF002093
:10494000236C606363608342BED0E36B2360F8BD79
:10495000402360600B43A3E7C84E0000E84E000010
:10496000A84E0000A44E00003548000070B50C00B1
:104970000E25495F00F0E8F8002803DB636D1B1883
:10498000636570BDA389024A1340A381F9E7C0465D
:10499000FFEFFFFFF8B51F008B8905000C00160024
:1049A000DB0505D50E23C95E0022022300F074F852
:1049B000A389054A28001340A38132000E23E15E3B
:1049C0003B0000F01FF8F8BDFFEFFFFF70B50C00D3
:1049D0000E25495F00F060F8A389421C03D1054A07
:1049E0001340A38170BD802252011343A3816065EF
:1049F000F8E7C046FFEFFFFF10B50E23C95E00F0D9
:104A000015F810BD70B50500080011000022064C15
:104A100022601A00FEF7A2F9431C03D12368002B81
:104A200000D02B6070BDC04690010020002370B5FF
:104A3000064C050008002360FCF7BEF9431C03D1B7
:104A40002368002B00D02B6070BDC0469001002071
:104A5000002370B5064C0500080011002360FCF728
:104A6000AEF9431C03D12368002B00D02B6070BD2E
:104A700090010020002370B5064C0500080023605B
:104A8000FCF7A2F9431C03D12368002B00D02B6054
:104A900070BDC0469001002070B5050008001100EF
:104AA0000022064C22601A00FCF790F9431C03D147
:104AB0002368002B00D02B6070BDC0469001002001
:104AC000C9B28218904201D10020704703788B420E
:104AD000FBD00130F6E710B5884202D98B18984216
:104AE00008D300239A4207D0CC5CC4540133F9E7C1
:104AF0008B5C8354013AFBD210BDF8B507000D0062
:104B00001600002905D11100FEF7C4FE04002000A4
:104B1000F8BD002A03D1FEF773FE3400F7E700F07A
:104B200027F82C008642F2D931003800FEF7B2FE99
:104B3000041EECD029003200FEF750FE2900380098
:104B4000FEF75EFEE3E7000070B505000800110007
:104B50000022064C22601A00FEF7ECF8431C03D139
:104B60002368002B00D02B6070BDC0469001002050
:104B70000B1F1B68181F002B01DA0B58C018704759
:104B80002E2E2F68616C2F7372632F68616C5F69C2
:104B900032635F6D5F73796E632E63002E2E2F6814
:104BA000616C2F7372632F68616C5F696F2E630095
:104BB0002E2E2F68616C2F7372632F68616C5F708B
:104BC000776D2E63000000002E2E2F68616C2F730E
:104BD00072632F68616C5F74696D65722E6300008B
:104BE0002E2E2F68616C2F7372632F68616C5F7556
:104BF000736172745F73796E632E63002E2E2F685B
:104C0000616C2F7574696C732F7372632F7574697F
:104C10006C735F6C6973742E630000000400000005
:104C20001400000006000000260000002E2E2F6851
:104C3000706C2F6569632F68706C5F6569632E63A4
:104C4000000000000000000014002002000100002D
:104C5000000004000000140040420F002E2E2F68B8
:104C6000706C2F736572636F6D2F68706C5F736506
:104C700072636F6D2E6300002E2E2F68706C2F7480
:104C8000632F68706C5F74632E630000436F6E74F3
:104C900072617374203D20000000000041646A7559
:104CA0007374206279205B5D206B657900000000E1
:104CB000442D686569676874203D2000000000008D
:104CC00053656C656374206279205B5D206B657948
:104CD000000000006572726F72206F6363757272FC
:104CE00065640000256400006572726F7200000048
:104CF0004E2C0000802C0000902C0000A02C000006
:104D00005E2C00005E2C00005E2C00005E2C00007B
:104D10005E2C00005E2C00005E2C00005E2C00006B
:104D20005E2C00005E2C00005E2C00005E2C00005B
:104D30005E2C00005E2C00005E2C00005E2C00004B
:104D40005E2C00005E2C00005E2C00005E2C00003B
:104D50005E2C00005E2C00005E2C00005E2C00002B
:104D60005E2C00005E2C00005E2C00005E2C00001B
:104D70005E2C00005E2C00005E2C00005E2C00000B
:104D80005E2C00005E2C00005E2C00005E2C0000FB
:104D90005E2C00005E2C00005E2C00005E2C0000EB
:104DA0005E2C00005E2C00005E2C00005E2C0000DB
:104DB0005E2C00005E2C00005E2C00005E2C0000CB
:104DC0005E2C00005E2C00005E2C0000B02C000069
:104DD0005E2C00005E2C00005E2C0000CE2C00003B
:104DE000646973742E2000000000000000000000C1
:104DF000312E4D6972726F7220322E436F6E747253
:104E0000617374200000000000000000000000003A
:104E10000000000000000000332E486569676874D8
:104E200020342E536F6E6E6572200000000000006B
:104E30000000000000000000000000000000000072
:104E40002533642E2564636D00000000456E746593
:104E50007220746F207570646174650053746172A0
:104E60007400000008330000C8310000C8310000A1
:104E7000C4310000E0320000E0320000D232000015
:104E8000C4310000E0320000D2320000E032000005
:104E9000C4310000E8320000E8320000E8320000CF
:104EA000EC3400004400002000000000000000007E
:104EB00000000000000000000000000000000000F2
:104EC00000000000000000000000000000000000E2
:104ED00000000000000000000000000000000000D2
:104EE00000000000000000000000000000000000C2
:104EF00000000000000000000000000000000000B2
:104F00000000000000000000232D302B2000686C02
:104F10004C006566674546470030313233343536DC
:104F20003738394142434445460030313233343515
:104F3000363738396162636465660000F8B5C0468B
:104F4000F8BC08BC9E467047DD000000F8B5C046BE
:0C4F5000F8BC08BC9E467047B50000008D
:104F5C000300680300000000000000007D0000005A
:104F6C000000000004006800000000003200000097
:104F7C009F8601004FC3000006006800000000007F
:104F8C00320000009F8601004FC3000001000000AA
:104F9C004400002000000000C84E0000E84E000055
:104FAC00A84E0000000000000000000000000000FF
:104FBC0000000000000000000000000000000000E5
:104FCC0000000000000000000000000000000000D5
:104FDC0000000000000000000000000000000000C5
:104FEC0000000000000000000000000000000000B5
:044FFC0000000000B1
:00000001FF
